:1000000009C016C016C014C013C012C011C010C061
:100010000FC00EC011241FBECFE9CDBF10E0A0E677
:10002000B0E001C01D92A136B107E1F71CD04FC06E
:10003000E7CF1F920F920FB60F9211248F939F93C9
:1000400088E99AE30197F1F7B49B03C0109260002E
:1000500003C081E0809360009F918F910F900FBE4D
:100060000F901F90189584B714BE81FF03C081E0E4
:10007000382604C010926000332433948FE087BB8D
:1000800080E28BBF80E185BB81E085BF7894332D12
:1000900023E348EB5BE0809160008823E1F3822F4B
:1000A00090E0332331F0880F991F221F2227221F4F
:1000B00006C09695982F8827979587952695282B83
:1000C000822F8F7088BBCA010197F1F7E4CFF894B3
:0200D000FFCF60
:00000001FF
